S01100004D49432D5765656B322E737265634F
S113000045C0000072C00000BBC00000ECC000008E
S11300105AC0000075C0000056C0000054C0000063
S113002052C0000050C000004EC000004CC0000090
S11300304AC0000048C0000046C0000044C00000A0
S113004042C0000040C000003EC000003CC00000B0
S11300503AC0000038C0000036C0000034C00000C0
S113006032C0000030C000002EC000002CC00000D0
S11300702AC0000028C0000026C0000024C00000E0
S113008022C0000020C000001EC0000011241FBEBA
S1130090CFEFD0E1DEBFCDBF11E0A0E0B1E0ECE3F3
S11300A0F2E000E00BBF02C007900D92A030B10750
S11300B0D9F721E0A0E0B1E001C01D92A230B2075F
S11300C0E1F749D0B9C09CCF181619066CF420E0AA
S11300D030E0EFECF7E03197F1F700C000002F5F5C
S11300E03F4F28173907A9F708951F920F920FB6AB
S11300F00F921124959A0F900FBE0F901F90189590
S11301001F920F920FB60F9211248F939F9393B166
S113011081E0892783B99F918F910F900FBE0F9033
S11301201F90189580EF81BB8FEF84BB81E085BB66
S1130130EAE6F0E080818862808389B7866089BFBF
S113014081E090E09093010180930001789484EF22
S113015091E0BADFFCCFE6DF892B21F085B38695E9
S113016085BB03C085B3880F85BBAF9B03C081E00B
S113017085BB089585B3811102C080E885BB0895CD
S11301801F920F920FB60F9211240BB60F922F935A
S11301903F934F935F936F937F938F939F93AF930B
S11301A0BF93EF93FF938091000190910101009719
S11301B011F4959805C0019719F481E090E0CCDF23
S11301C0FF91EF91BF91AF919F918F917F916F912B
S11301D05F914F913F912F910F900BBE0F900FBEE7
S11301E00F901F9018951F920F920FB60F92112423
S11301F00BB60F922F933F934F935F936F937F931D
S11302008F939F93AF93BF93EF93FF9380E090E01E
S1130210A3DFFF91EF91BF91AF919F918F917F9158
S11302206F915F914F913F912F910F900BBE0F9063
S10F02300FBE0F901F901895F894FFCF9C
S9030000FC
