S01100004D49432D5765656B322E737265634F
S113000045C0000072C00000A1C00000D2C00000C2
S11300105AC0000075C0000056C0000054C0000063
S113002052C0000050C000004EC000004CC0000090
S11300304AC0000048C0000046C0000044C00000A0
S113004042C0000040C000003EC000003CC00000B0
S11300503AC0000038C0000036C0000034C00000C0
S113006032C0000030C000002EC000002CC00000D0
S11300702AC0000028C0000026C0000024C00000E0
S113008022C0000020C000001EC0000011241FBEBA
S1130090CFEFD0E1DEBFCDBF11E0A0E0B1E0E4E9F5
S11300A0F2E000E00BBF02C007900D92AC36B1073E
S11300B0D9F721E0ACE6B1E001C01D92A037B20748
S11300C0E1F7E5D0E5C09CCF181619066CF420E0E2
S11300D030E0EFECF7E03197F1F700C000002F5F5C
S11300E03F4F28173907A9F708951F920F920FB6AB
S11300F00F921124959A0F900FBE0F901F90189590
S11301001F920F920FB60F9211248F939F9393B166
S113011081E0892783B99F918F910F900FBE0F9033
S11301201F901895892B21F085B3869585BB03C054
S113013085B3880F85BBAF9B03C081E085BB089561
S113014085B3811102C080E885BB08951F920F9288
S11301500FB60F9211240BB60F922F933F934F9328
S11301605F936F937F938F939F93AF93BF93EF931B
S1130170FF9380916E0190916F01009711F495980F
S113018005C0019719F481E090E0CCDFFF91EF9175
S1130190BF91AF919F918F917F916F915F914F919B
S11301A03F912F910F900BBE0F900FBE0F901F9099
S11301B018951F920F920FB60F9211240BB60F923F
S11301C02F933F934F935F936F937F938F939F935B
S11301D0AF93BF93EF93FF9380E090E0A3DFFF9191
S11301E0EF91BF91AF919F918F917F916F915F91AB
S11301F04F913F912F910F900BBE0F900FBE0F9018
S11302001F9018958FEF81BB14BA83B3882331F004
S113021083B390E090936A018093690180916C01AB
S113022090916D01FC01EE0FFF1F8E0F9F1FFC01CB
S1130230E050FF4F808182BB80916C0190916D01F1
S1130240FC01EE0FFF1F8E0F9F1FFC01E050FF4FBC
S11302502091690130916A0181819281AC01249FCE
S1130260C001259F900D349F900D11242DDF8091A6
S11302706C0190916D01019690936D0180936C01D6
S1130280839718F210926D0110926C01BECFBADF01
S1070290F894FFCF0C
S11302940164000264000464000864001064002023
S11302A464000164002064001064000864000464B1
S11302B400026400016400016400406400086400F6
S11302C408640040640001640001640040640008A0
S11302D4640008640048640009640009640012644A
S11302E400246400096400126400246400096400A6
S10F02F409640041640001640001000082
S9030000FC
