S01100004D49432D5765656B332E737265634E
S113000045C0000058C0000056C0000054C00000A5
S113001052C0000050C000004EC000004CC00000A0
S11300204AC0000048C0000046C0000044C00000B0
S113003042C0000040C000003EC000003CC00000C0
S11300403AC0000038C0000036C0000034C00000D0
S113005032C0000030C000002EC000002CC00000E0
S11300602AC0000028C0000026C0000024C00000F0
S113007022C0000020C000001EC000001CC0000000
S11300801AC0000018C0000016C0000011241FBED2
S1130090CFEFD0E1DEBFCDBF11E0A0E0B1E0E4E6F8
S11300A0F3E000E00BBF02C007900D92A435B10746
S11300B0D9F7A3D055C1A4CF982F907F95BB95B302
S11300C09C6095BBEFECF7E03197F1F700C00000BE
S11300D094E095BBF0E18F9FC001112485BB85B3EB
S11300E08C6085BB8FEC97E00197F1F700C00000AE
S11300F015BA0895982F907F95BBAB9AEFECF7E073
S11301003197F1F700C0000094E095BBF0E18F9FB8
S1130110C001112485BBAB9A8FEC97E00197F1F7EE
S113012000C0000015BA08958FEF84BB2FEF80E75D
S113013092E0215080409040E1F700C0000082E04E
S113014090E0D8DF88E290E0D5DF8CE090E0D2DF69
S113015086E090E0CFDF80E890E0CCCF0895CF93A5
S1130160DF93EB01892B19F080ECC4DF02C080E837
S1130170C1DF8881882359F021969EDF8FEC97E0B8
S11301800197F1F700C0000089918111F6CFDF914A
S1130190CF910895C9DF87EB9AE47AD076D087703F
S11301A09078992324F40197886F9F6F0196BC017E
S11301B0660F771F880F991F880F991F880F991F43
S11301C0680F791F6C5F7E4F80E090E0C8DF2FEFEF
S11301D089E698E1215080409040E1F700C000009A
S11301E081E090E087DF2FEF80E792E021508040AC
S11301F09040E1F700C00000D1CFCCDF8F929F92F6
S1130200AF92BF92CF92DF92EF92FF92CF93DF93A0
S1130210EC01688179818A819B8161157105810571
S1130220910521F464E279ED8BE597E02DE133EF5C
S113023041E050E038D049015A019B01AC01A7EAE2
S1130240B1E44DD06B017C01ACEEB4EFA501940197
S113025052D0DC01CB018C0D9D1DAE1DBF1DB7FF1F
S113026003C00197A109B04888839983AA83BB83FB
S11302709F77DF91CF91FF90EF90DF90CF90BF9069
S1130280AF909F908F900895B9CF80E091E0B6CF62
S1130290A0E0B0E08093000190930101A0930201DB
S11302A0B09303010895052E97FB16F400940FD024
S11302B057FD05D024D007FC02D046F408C0509561
S11302C04095309521953F4F4F4F5F4F089590953E
S11302D08095709561957F4F8F4F9F4F089531D0D2
S11302E0A59F900DB49F900DA49F800D911D112486
S11302F00895B7FFF4CFF3DF821B930B0895A1E2B7
S11303001A2EAA1BBB1BFD010DC0AA1FBB1FEE1F8B
S1130310FF1FA217B307E407F50720F0A21BB30BD6
S1130320E40BF50B661F771F881F991F1A9469F752
S113033060957095809590959B01AC01BD01CF01AE
S11303400895A29FB001B39FC001A39F700D811DAA
S11303501124911DB29F700D811D1124911D0895CA
S1070360F894FFCF3B
S1130364010000004B656E6E6574680000004A610C
S11303746E636F00000000004172746875720000BF
S113038400004D617274696A6E0000004D617572FB
S11303946F000000000052656E650000000000005C
S11303A452656D636F00000000004A616E6E6963FC
S10703B46B000000D6
S9030000FC
