S01100004D49432D5765656B332E737265634E
S113000045C0000060C000005EC000005CC000008D
S11300105AC0000058C0000056C0000054C0000080
S113002052C0000050C00000B3C000004CC000002B
S11300304AC0000048C0000046C0000044C00000A0
S113004042C0000040C000003EC000003CC00000B0
S11300503AC0000038C0000036C0000034C00000C0
S113006032C0000030C000002EC000002CC00000D0
S11300702AC0000028C0000026C0000024C00000E0
S113008022C0000020C000001EC0000011241FBEBA
S1130090CFEFD0E1DEBFCDBF16E0A0E0B1E0EEE9E6
S11300A0F3E000E00BBF02C007900D92A030B1074F
S11300B0D9F726E0A0E0B6E001C01D92A830B2074F
S11300C0E1F75BD16AC19CCF982F907F95BB95B324
S11300D09C6095BBEFE9FFE03197F1F700C00000A9
S11300E094E095BBEFE9FFE03197F1F700C0000021
S11300F0F0E18F9FC001112485BB85B38C6085BB63
S11301008FE99FE00197F1F700C0000015BA089548
S1130110982F907F95BBAB9AEFE9FFE03197F1F709
S113012000C0000094E095BBEFE9FFE03197F1F7E0
S113013000C00000F0E18F9FC001112485BBAB9A81
S11301408FE99FE00197F1F700C0000015BA089508
S1130150CF93DF93EB01892B19F080ECD9DF02C038
S113016080E8D6DF8881882359F02196ADDF8FE9B6
S11301709FE00197F1F700C0000089918111F6CF4B
S1130180DF91CF91089581E0C3DF80E8C1CF089566
S11301901F920F920FB60F9211240BB60F922F934A
S11301A03F934F935F936F937F938F939F93AF93FB
S11301B0BF93EF93FF9380910606909107068230D8
S11301C09105E9F414BC8FE082BBDDDF2FEF80E7FB
S11301D092E0215080409040E1F700C000006AEEB8
S11301E075E081E090E0B4DF2FEF84E39CE02150E0
S11301F080409040E1F700C0000012BA4CC0833048
S11302009105D1F492B381E0892782BB80910406E1
S113021090910506892B39F08AE884BD1092050671
S11302201092040638C08CE384BD81E090E0909382
S11302300506809304062FC0049769F5E091000633
S1130240F0910106EE0FFF1FEE0FFF1FE050FF4F6E
S113025080819181892B21F092B381E0892782BB2F
S1130260E0910006F0910106EE0FFF1FEE0FFF1F55
S1130270E050FF4F408151819A01A3E9B4E27ED05E
S1130280481B590B56954795840F951F969587954E
S11302909695879584BDFF91EF91BF91AF919F9102
S11302A08F917F916F915F914F913F912F910F901B
S11302B00BBE0F900FBE0F901F90189584E090E036
S11302C09093070680930606109203061092020686
S11302D010920106109200068FEF81BB87BB18BAFB
S11302E02FEF84E39CE0215080409040E1F700C070
S11302F0000018BA14BC85B5836085BD87B78064D7
S113030087BF789418BA4091000650910106FA010B
S1130310EE0FFF1FEE0FFF1FE050FF4F22813381CE
S1130320ADECBCEC2BD0887F209102063091030603
S11303308217930788F44F5F5F4F509301064093F1
S1130340000610920306109202064831510520F06F
S113035010920106109200068FEC97E00197F1F7D6
S113036000C0000018BA809102069091030601961D
S11303709093030680930206C5CFA0DFA29FB0012D
S1130380B39FC001A39F700D811D1124911DB29FC5
S1110390700D811D1124911D0895F894FFCF66
S113039E94026400000096009402640000002C0194
S11303AE9402640000002C01FE016400000064004D
S11303BE9402640000002C01020364000000260273
S11303CE7C01640000003F02FE0164000000C201D3
S11303DE7C01640000009001400164000000F401FF
S11303EEB801640000002C01E001500000004A0135
S11303FEC201640000009600AE01640000002C01EE
S113040E7C0164000000C800940250000000C80083
S113041EF8023200000096005C03640000002C0118
S113042EBC02500000009600F802320000005E018B
S113043E9402500000002C010802500000009600A7
S113044E4402500000009600E00150000000F40148
S113045EFE0164000000C2017C01640000009001F2
S113046E400164000000F401B801640000002C0196
S113047EE001500000004A01C20164000000960031
S113048EAE01640000002C017C0164000000C80071
S113049E940250000000C800F802320000009600DA
S11304AE5C03640000002C01BC02500000009600A6
S11304BEF802320000005E019402500000002C018C
S11304CE08025000000096004402500000009600FE
S11304DEE00150000000F401F401640000002C015E
S11304EEF802640000006400D0026400000096006C
S11304FEA8026400000096006C02960000002C0115
S113050E8A02960000002C017C0164000000960013
S113051EAE01640000009600F401640000002C019A
S113052EAE01640000009600F40164000000640053
S113053E3A0264000000DC00F401640000002C01A7
S113054EF802640000006400D0026400000096000B
S113055EA8026400000096006C02960000002C01B4
S113056E8A02C80000002C01FC03500000002C017C
S113057EFC03500000009600FC03500000002C0108
S113058E7C01640000002C01F401640000002C01C5
S113059EF802640000006400D002640000009600BB
S11305AEA8026400000096006C02960000002C0164
S11305BE8A02960000002C017C0164000000960063
S11305CEAE01640000009600F401640000002C01EA
S11305DEAE01640000009600F401640000006400A3
S11305EE3A0264000000A401490264000000C20142
S11305FE260264000000A401F401640000006801F6
S113060E7C01640000002C01F401640000002C0144
S113061EF401640000009600F401640000002C0153
S113062EF401640000002C01F80264000000640070
S113063ED002640000009600A80264000000960038
S113064E6C02960000002C018A02960000002C0118
S113065E7C01640000009600AE0164000000960068
S113066EF401640000002C01AE0164000000960049
S113067EF4016400000064003A0264000000DC002F
S113068EF401640000002C01F80264000000640010
S113069ED002640000009600A802640000009600D8
S11306AE6C02960000002C018A02C80000002C0186
S11306BEFC03500000002C01FC03500000009600C7
S11306CEFC03500000002C017C01640000002C018E
S11306DEF401640000002C01F802640000006400C0
S11306EED002640000009600A80264000000960088
S11306FE6C02960000002C018A02960000002C0168
S113070E7C01640000009600AE01640000009600B7
S113071EF401640000002C01AE0164000000960098
S113072EF4016400000064003A0264000000A401B5
S113073E490264000000C201260264000000A40104
S113074EF4016400000068017C01640000002C01C7
S113075EF401640000002C01F40164000000960012
S113076EF401640000002C01F4013C00000096002A
S113077EF401500000002C01F4013C0000005E0165
S113078EF4015000000096004402500000005E0187
S113079E9402500000009600F401500000002C0159
S11307AEAE015000000096007C015000000058027B
S11307BEF4013C0000009600F401500000002C01EE
S11307CEF4013C0000005E01F401500000009600AC
S11307DE44025000000096009402500000002602CD
S11307EE6603500000004501F80250000000580254
S11307FEF4013C0000009600F401500000002C01AE
S113080EF4013C0000005E01F4015000000096006B
S113081E4402500000005E01940250000000960055
S113082EF401500000002C01AE01500000009600AF
S113083E7C015000000058029402640000009600EF
S113084E9402640000002C019402640000002C0148
S113085EFE016400000064009402640000002C0198
S113086E02036400000026027C01640000003F02C3
S113087E3A2D29207E20282D3A004F766572666C1B
S113088E6F77002564002D2D2D2D2D2D2D2D2D0052
S9030000FC
