S00F0000455350383236362E7372656357
S113000045C0000058C0000056C0000054C00000A5
S113001052C0000050C000004EC000004CC00000A0
S11300204AC0000048C0000046C0000044C00000B0
S113003042C0000040C000003EC000003CC00000C0
S11300403AC0000038C0000036C0000034C00000D0
S113005032C0000030C000002EC000002CC00000E0
S11300602AC0000028C0000026C0000024C00000F0
S113007022C0000020C000001EC000001CC0000000
S11300801AC0000018C0000016C0000011241FBED2
S1130090CFEFD0E1DEBFCDBF11E0A0E0B1E0E8E3F7
S11300A0F3E000E00BBF02C007900D92AA30B10745
S11300B0D9F7D0D03FC1A4CF80E895E2E4D082E361
S11300C090E0B7D0F3D08AE090E0B3C00895982FC1
S11300D0907F95BB95B39C6095BBEFECF7E03197AF
S11300E0F1F700C0000094E095BBEFECF7E0319726
S11300F0F1F700C00000F0E18F9FC001112485BB1F
S113010085B38C6085BB8FEC97E00197F1F700C055
S1130110000015BA0895982F907F95BBAB9AEFE92C
S1130120FFE03197F1F700C0000094E095BBEFE9E0
S1130130FFE03197F1F700C00000F0E18F9FC001AC
S1130140112485BBAB9A8FE99FE00197F1F700C0BA
S1130150000015BA08950F931F93CF93DF93EB011B
S11301608A01892B49F080ECD6DFFE01E00FF11FF4
S11301708081811104C011C080E8CDDFF6CF0F5F0C
S11301801F4FC00FD11FA3DF8FEC97E00197F1F74A
S113019000C0000089918111F6CFDF91CF911F91AA
S11301A00F91089581E0B7DF80E8B5CF08958FEF10
S11301B084BB2FEF80E792E0215080409040E1F72C
S11301C000C0000082E0A7DF2FE788E391E0215020
S11301D080409040E1F700C0000088E29CDF2FE7F8
S11301E088E391E0215080409040E1F700C0000096
S11301F08CE091DF2FE788E391E02150804090402C
S1130200E1F700C0000086E086DF2FE788E391E095
S1130210215080409040E1F700C00000C3DF2FEF81
S113022080E792E0215080409040E1F700C0000058
S11302300895181619066CF420E030E0EFECF7E0AE
S11302403197F1F700C000002F5F3F4F281739079F
S1130250A9F7089531DF82E390E0EBDFA8DF40E007
S113026050E064E071E080E090E075DF86E990E0C2
S1130270E0DF98DF88EE93E0DCDF80E091E024D0DB
S11302801FD025DFF7CF9C01990F440B550B60E27B
S113029071EA87E090E02CD021503109309390002E
S11302A029B986E0809395001AB808958AB18861C7
S11302B08AB908955D9BFECF8CB980E090E00895E3
S11302C05F9BFECF8CB10895CF93DF93EC018881BF
S11302D0882329F02196EEDF89918111FCCF8DE0EE
S11302E0E9DF8AE0E7DF80E090E0DF91CF910895D5
S11302F0A1E21A2EAA1BBB1BFD010DC0AA1FBB1F26
S1130300EE1FFF1FA217B307E407F50720F0A21B97
S1130310B30BE40BF50B661F771F881F991F1A9404
S113032069F760957095809590959B01AC01BD012E
S10B0330CF010895F894FFCFFA
S10D0338415400005265616479002D
S9030000FC
