S01100004D49432D5765656B352E737265634C
S113000045C000004BC0000049C0000047C00000CC
S113001045C0000043C0000041C000003FC00000D4
S11300203DC000003BC0000039C0000037C00000E4
S113003035C0000033C0000031C000002FC00000F4
S11300402DC000002BC0000029C0000027C0000004
S113005025C0000023C0000021C000001FC0000014
S11300601DC000001BC0000019C0000017C0000024
S113007015C0000013C0000011C000000FC0000034
S11300800DC000000BC0000009C0000011241FBEF9
S1130090CFEFD0E1DEBFCDBF41D0E9C0B1CF18165C
S11300A019066CF420E030E0EFECF7E03197F1F75B
S11300B000C000002F5F3F4F28173907A9F70895A4
S11300C0CF93DF9381E087BB2DD04ED089E19CEFA5
S11300D07BD085E090E0E3DFC9E1DCEF0EC0CE0128
S11300E073D085E090E0DBDFCE0187509F4F8336ED
S11300F0910518F48BE490E0D2DFCE018759910981
S11301008336910518F48BE490E0C9DF2196C03161
S113011087E2D80721F7DF91CF910895D1DF80E0FE
S113012090E008958FEF87BBBB98C09A82E58DB9A4
S113013008958FB9779BFECF089598B321E030E0FE
S113014002C0220F331F8A95E2F72095292328BB8A
S1130150089598B321E030E002C0220F331F8A953E
S1130160E2F7292B28BB089580E0E7DF89E0E1DF8F
S11301708FEFDFDF80E0EDDF80E0DFDF8AE0D9DFD3
S11301808FE0D7DF80E0E5DF80E0D7DF8BE0D1DFF1
S113019083E0CFDF80E0DDDF80E0CFDF8CE0C9DF0C
S11301A081E0C7DF80E0D5CF0895CF93DF93D82FC8
S11301B0C62F80E0C2DF8D2FBCDF8C2FBADF80E03A
S11301C0C8DFDF91CF910895CF93DF939C0129512C
S11301D03C4F273F3A4208F5992344F4CC27DD27C6
S11301E0C81BD90B6AE084E0E0DF06C068EE73E068
S11301F017D0EC0184E0D9DFCE0164E670E010D0C2
S1130200EC0183E0D2DFCE016AE070E009D0C82FB0
S113021082E0CBDF6C2F81E0C8DFDF91CF910895BE
S113022097FB072E16F4009406D077FD08D00BD068
S113023007FC05D03EF4909581959F4F08957095E5
S113024061957F4F0895AA1BBB1B51E107C0AA1FEC
S1130250BB1FA617B70710F0A61BB70B881F991F63
S11302605A95A9F780959095BC01CD010895F8940D
S1050270FFCFBA
S9030000FC
