S01100004D49432D5765656B352E737265634C
S113000045C000004BC0000049C0000047C00000CC
S113001045C0000043C0000041C000003FC00000D4
S11300203DC000003BC0000039C0000037C00000E4
S113003035C0000033C0000031C000002FC00000F4
S11300402DC000002BC0000029C0000027C0000004
S113005025C0000023C0000021C000001FC0000014
S11300601DC000001BC0000019C0000017C0000024
S113007015C0000013C0000011C000000FC0000034
S11300800DC000000BC0000009C0000011241FBEF9
S1130090CFEFD0E1DEBFCDBF20D033C0B1CF181633
S11300A019066CF420E030E0EFECF7E03197F1F75B
S11300B000C000002F5F3F4F28173907A9F70895A4
S11300C08FEF81BB0BD013D082E390E0E8DF82B3E3
S11300D0805882BB8AE20FD0F7CFF2DF10929000F3
S11300E08FEC89B986E0809395001AB808958AB197
S11300F088618AB908955D9BFECF8CB980E090E059
S10901000895F894FFCFFE
S9030000FC
