S01100004D49432D5765656B352E737265634C
S113000045C000004BC0000049C0000047C00000CC
S113001045C0000043C0000041C000003FC00000D4
S11300203DC000003BC0000039C0000037C00000E4
S113003035C0000033C0000031C000002FC00000F4
S11300402DC000002BC0000029C0000027C0000004
S113005025C0000023C0000021C000001FC0000014
S11300601DC000001BC0000019C0000017C0000024
S113007015C0000013C0000011C000000FC0000034
S11300800DC000000BC0000009C0000011241FBEF9
S1130090CFEFD0E1DEBFCDBF86D044C1B1CF1816BB
S11300A019066CF420E030E0EFECF7E03197F1F75B
S11300B000C000002F5F3F4F28173907A9F70895A4
S11300C06F927F928F929F92AF92BF92CF92DF9264
S11300D0EF92FF920F931F93CF93DF9381E087BB3F
S11300E066D087D089E19CEFCAD085E090E0D7DF65
S11300F009E11CEFE12CF12CC0E0D0E0AA24A39488
S1130100B12C0F2EF6E0CF2EF02DD12C612C712CBA
S11301100F2EFFE08F2EF02D912C0EC0C801AFD012
S113012085E090E0BCDFC80187509F4F833691057E
S113013018F48BE490E0B3DFC80187599109833642
S1130140910518F48BE490E0AADFE114F10411F0B6
S1130150219601C02197C630D10544F0C031D105A4
S11301604CF0E62CF72CC82DD92D04C0EA2CFB2C1E
S1130170CC2DDD2DCE015ED00F5F1F4F003187E205
S1130180180761F681E090E0DF91CF911F910F9104
S1130190FF90EF90DF90CF90BF90AF909F908F90A3
S11301A07F906F9008958CDF80E090E008958FEF4A
S11301B087BBBB98C09A82E58DB908958FB9779BA8
S11301C0FECF089598B321E030E002C0220F331F20
S11301D08A95E2F72095292328BB089598B321E056
S11301E030E002C0220F331F8A95E2F7292B28BB87
S11301F0089580E0E7DF89E0E1DF8FEFDFDF80E073
S1130200EDDF80E0DFDF8AE0D9DF8FE0D7DF80E059
S1130210E5DF80E0D7DF8BE0D1DF83E0CFDF80E074
S1130220DDDF80E0CFDF8CE0C9DF81E0C7DF80E085
S1130230D5CF0895CF93DF93EC01992314F4C0E054
S1130240D0E080E0BFDF8AE0B9DFCE01609714F030
S11302508FE090E0B3DF80E0C1DFDF91CF910895BC
S1130260CF93DF93D82FC62F80E0ACDF8D2FA6DF8E
S11302708C2FA4DF80E0B2DFDF91CF910895CF937C
S1130280DF939C0129513C4F273F3A4208F59923BB
S113029044F4CC27DD27C81BD90B6AE084E0E0DFF7
S11302A006C068EE73E017D0EC0184E0D9DFCE011C
S11302B064E670E010D0EC0183E0D2DFCE016AE0A6
S11302C070E009D0C82F82E0CBDF6C2F81E0C8DF5B
S11302D0DF91CF91089597FB072E16F4009406D072
S11302E077FD08D00BD007FC05D03EF4909581959E
S11302F09F4F0895709561957F4F0895AA1BBB1B6E
S113030051E107C0AA1FBB1FA617B70710F0A61B11
S1130310B70B881F991F5A95A9F780959095BC0132
S10B0320CD010895F894FFCF0C
S9030000FC
