S01100004D49432D5765656B352E737265634C
S113000045C0000060C000005EC000005CC000008D
S11300105AC0000058C0000056C0000054C0000080
S113002052C0000050C000004EC000004CC0000090
S11300304AC0000048C0000046C0000044C00000A0
S113004042C0000040C000003EC000003CC00000B0
S11300503AC0000038C0000036C0000034C00000C0
S113006032C0000030C000002EC000002CC00000D0
S11300702AC0000028C0000026C0000024C00000E0
S113008022C0000020C000001EC0000011241FBEBA
S1130090CFEFD0E1DEBFCDBF11E0A0E0B1E0E4EDF1
S11300A0F2E000E00BBF02C007900D92AE30B10742
S11300B0D9F721E0AEE0B1E001C01D92AE30B20745
S11300C0E1F7B9D005C19CCF982F907F95BB95B32C
S11300D09C6095BBEFE9FFE03197F1F700C00000A9
S11300E094E095BBEFE9FFE03197F1F700C0000021
S11300F0F0E18F9FC001112485BB85B38C6085BB63
S11301008FE99FE00197F1F700C0000015BA089548
S1130110982F907F95BBAB9AEFE9FFE03197F1F709
S113012000C0000094E095BBEFE9FFE03197F1F7E0
S113013000C00000F0E18F9FC001112485BBAB9A81
S11301408FE99FE00197F1F700C0000015BA089508
S1130150CF93DF93EB01892B19F080ECD9DF02C038
S113016080E8D6DF8881882359F02196ADDF8FE9B6
S11301709FE00197F1F700C0000089918111F6CF4B
S1130180DF91CF91089581E0C3DF80E8C1CF089566
S11301908FEF84BB2FEF80E792E0215080409040A6
S11301A0E1F700C0000082E0B3DF2FE788E391E0CD
S11301B0215080409040E1F700C0000088E2A8DFB1
S11301C02FE788E391E0215080409040E1F700C0A0
S11301D000008CE09DDF2FE788E391E02150804010
S11301E09040E1F700C0000086E092DF2FE788E34B
S11301F091E0215080409040E1F700C00000C3DF4F
S11302002FEF80E792E0215080409040E1F700C05A
S113021000000895181619066CF420E030E0EFECA5
S1130220F7E03197F1F700C000002F5F3F4F281728
S11302303907A9F70895CF93DF93CDB7DEB7609759
S11302400FB6F894DEBF0FBECDBF8FEF87BBA0DF24
S11302501CD024D084E690E0DDDF60E071E081E032
S113026090E076DF84E690E0D5DF82E390E0D2DFB1
S113027088B3805888BBCE01019618D0BE016F5F49
S11302807F4F80E090E064DFF0CF1092900083E332
S113029089B986E0809395001AB808958AB1886177
S11302A08AB908955F9BFECF8CB108950F931F9375
S11302B0CF93DF93EC01F6DF8A3011F08993FBCF03
S11302C0188280E090E0DF91CF911F910F91089503
S10702D0F894FFCFCC
S11102D45465737420646973706C6179000062
S9030000FC
