S01100004D49432D5765656B352E737265634C
S113000045C000004BC0000049C0000047C00000CC
S113001045C0000043C0000041C000003FC00000D4
S11300203DC000003BC0000039C0000037C00000E4
S113003035C0000033C0000031C000002FC00000F4
S11300402DC000002BC0000029C0000027C0000004
S113005025C0000023C0000021C000001FC0000014
S11300601DC000001BC0000019C0000017C0000024
S113007015C0000013C0000011C000000FC0000034
S11300800DC000000BC0000009C0000011241FBEF9
S1130090CFEFD0E1DEBFCDBFC5D00CC1B1CF982F1B
S11300A0907F95BB95B39C6095BBEFECF7E03197DF
S11300B0F1F700C0000094E095BBEFECF7E0319756
S11300C0F1F700C00000F0E18F9FC001112485BB4F
S11300D085B38C6085BB8FEC97E00197F1F700C086
S11300E0000015BA0895982F907F95BBAB9AEFE95D
S11300F0FFE03197F1F700C0000094E095BBEFE911
S1130100FFE03197F1F700C00000F0E18F9FC001DC
S1130110112485BBAB9A8FE99FE00197F1F700C0EA
S1130120000015BA08950F931F93CF93DF93EB014B
S11301308A01892B49F080ECD6DFFE01E00FF11F24
S11301408081811104C011C080E8CDDFF6CF0F5F3C
S11301501F4FC00FD11FA3DF8FEC97E00197F1F77A
S113016000C0000089918111F6CFDF91CF911F91DA
S11301700F91089581E0B7DF80E8B5CF08958FEF40
S113018084BB2FEF80E792E0215080409040E1F75C
S113019000C0000082E0A7DF2FE788E391E0215050
S11301A080409040E1F700C0000088E29CDF2FE728
S11301B088E391E0215080409040E1F700C00000C6
S11301C08CE091DF2FE788E391E02150804090405C
S11301D0E1F700C0000086E086DF2FE788E391E0C6
S11301E0215080409040E1F700C00000C3DF2FEFB2
S11301F080E792E0215080409040E1F700C0000089
S11302000895181619066CF420E030E0EFECF7E0DE
S11302103197F1F700C000002F5F3F4F28173907CF
S1130220A9F70895CF93DF93CDB7DEB760970FB6E4
S1130230F894DEBF0FBECDBF8FEF87BBA0DF17D012
S11302401FD084E690E0DDDF84E690E0DADF86E923
S113025090E0D7DFCE0101961BD08CDF43E050E065
S1130260BE016F5F7F4F80E090E05DDFF0CF1092C2
S113027090008FEC89B986E0809395001AB80895B0
S11302808AB188618AB908955F9BFECF8CB10895C5
S11302900F931F93CF93DF93EC01F6DF8A3011F0B5
S11302A08993FBCF188280E090E0DF91CF911F917A
S10B02B00F910895F894FFCFAB
S9030000FC
