S01100004D49432D5765656B312E7372656350
S113000045C0000060C000005EC000005CC000008D
S11300105AC0000058C0000056C0000054C0000080
S113002052C0000050C000004EC000004CC0000090
S11300304AC0000048C0000046C0000044C00000A0
S113004068C0000040C000003EC000003CC000008A
S11300503AC0000038C0000036C0000034C00000C0
S113006032C0000030C000002EC000002CC00000D0
S11300702AC0000028C0000026C0000024C00000E0
S113008022C0000020C000001EC0000011241FBEBA
S1130090CFEFD0E1DEBFCDBF11E0A0E0B1E0E2E5FB
S11300A0F2E000E00BBF02C007900D92A230B1074E
S11300B0D9F721E0A2E0B1E001C01D92AA30B20755
S11300C0E1F7B6D0C4C09CCF181619060CF52091E0
S11300D00801309109012130310551F020E030E070
S11300E00CC040910801509109014130510529F497
S11300F010920901109208010895EFECF7E031978E
S1130100F1F700C000002F5F3F4F2817390749F768
S113011008951F920F920FB60F9211242F938F936D
S11301209F93989B1AC08091060190910701892B97
S1130130A1F48091000190910101880F991F90937F
S113014001018093000181E090E090930901809384
S113015008019093070180930601999B1DC080912B
S1130160040190910501892BB9F4809100019091CB
S1130170010199230CF401969595879590930101BB
S11301808093000181E090E090930901809308013D
S1130190909305018093040183B3811108C01092E8
S11301A0070110920601109205011092040180913A
S11301B0000190910101843191053CF484E190E0C7
S11301C0909301018093000109C0813A9F4034F06B
S11301D080EA9FE090930101809300019F918F91A9
S11301E02F910F900FBE0F901F90189582E390E00F
S11301F06BDF979B07C081E090E0909303018093AD
S113020002010EC082B3823028F4109203011092CE
S113021002010AC08091020190910301892B21F00F
S113022082B3869582BB089582B3880F82BB0895FA
S113023014BA8FEF81BB83B7836083BF87B78160B4
S113024087BF12BE789481E082BBD0DFFECFF894E2
S1050250FFCFDA
S1050252E803BB
S9030000FC
