S01100004D49432D5765656B312E7372656350
S113000045C0000060C000005EC000005CC000008D
S11300105AC0000058C0000056C0000054C0000080
S113002052C0000050C000004EC000004CC0000090
S11300304AC0000048C0000046C0000044C00000A0
S113004068C0000040C000003EC000003CC000008A
S11300503AC0000038C0000036C0000034C00000C0
S113006032C0000030C000002EC000002CC00000D0
S11300702AC0000028C0000026C0000024C00000E0
S113008022C0000020C000001EC0000011241FBEBA
S1130090CFEFD0E1DEBFCDBF11E0A0E0B1E0E6E9F3
S11300A0F2E000E00BBF02C007900D92A035B1074B
S11300B0D9F721E0A0E5B1E001C01D92A835B2074F
S11300C0E1F7D8D0E6C09CCF181619060CF520919C
S11300D05601309157012130310551F020E030E0D4
S11300E00CC040915601509157014130510529F4FB
S11300F010925701109256010895EFECF7E03197F2
S1130100F1F700C000002F5F3F4F2817390749F768
S113011008951F920F920FB60F9211242F938F936D
S11301209F93989B1AC08091520190915301892BFF
S1130130A1F480914B0190914C01880F991F9093E9
S11301404C0180934B0181E090E0909357018093A0
S113015056019093530180935201999B1DC0809145
S1130160500190915101892BB9F480914B019091E8
S11301704C0199230CF401969595879590934C0125
S113018080934B0181E090E0909357018093560156
S1130190909351018093500183B3811108C0109250
S11301A0530110925201109251011092500180910A
S11301B04B0190914C01843191053CF484E190E031
S11301C090934C0180934B0109C0813A9F4034F0D5
S11301D080EA9FE090934C0180934B019F918F9113
S11301E02F910F900FBE0F901F90189583B3882303
S11301F031F083B390E090934E0180934D01809150
S1130200540190915501FC01EE0FFF1F8E0F9F1FAB
S1130210FC01E050FF4F808182BB8091540190919A
S11302205501FC01EE0FFF1F8E0F9F1FFC01E050D4
S1130230FF4F20914D0130914E0181819281AC019B
S1130240249FC001259F900D349F900D11243CDF05
S1130250809154019091550101968931910528F4BA
S11302609093550180935401089510925501109272
S11302705401089514BA8FEF81BB83B7836083BFA1
S113028087B7816087BF12BE789481E082BBAEDFFE
S1090290FECFF894FFCF3D
S11302960064000164000264000464001064002029
S11302A66400406400806400006400AA3200553291
S11302B600AA3200553200AA32005532000064000A
S11302C68164004264002464001864000FC800F0CE
S11302D6C8000FC800F0C800000000E803010000D1
S9030000FC
