S01100004D49432D5765656B312E7372656350
S113000045C0000060C000005EC000005CC000008D
S11300105AC0000058C0000056C0000054C0000080
S113002052C0000050C000004EC000004CC0000090
S11300304AC0000048C0000046C0000044C00000A0
S113004068C0000040C000003EC000003CC000008A
S11300503AC0000038C0000036C0000034C00000C0
S113006032C0000030C000002EC000002CC00000D0
S11300702AC0000028C0000026C0000024C00000E0
S113008022C0000020C000001EC0000011241FBEBA
S1130090CFEFD0E1DEBFCDBF11E0A0E0B1E0E6E2FA
S11300A0F2E000E00BBF02C007900D92A230B1074E
S11300B0D9F721E0A2E0B1E001C01D92A830B20757
S11300C0E1F7A2D0AEC09CCF181619060CF520910A
S11300D00601309107012130310551F020E030E074
S11300E00CC040910601509107014130510529F49B
S11300F010920701109206010895EFECF7E0319792
S1130100F1F700C000002F5F3F4F2817390749F768
S113011008951F920F920FB60F9211242F938F936D
S11301209F93989B1AC08091040190910501892B9B
S1130130A1F48091000190910101880F991F90937F
S113014001018093000181E090E090930701809386
S113015006019093050180930401999B1DC0809131
S1130160020190910301892BB9F4809100019091CF
S1130170010199230CF401969595879590930101BB
S11301808093000181E090E0909307018093060141
S1130190909303018093020183B3811108C01092EC
S11301A00501109204011092030110920201809142
S11301B0000190910101843191053CF484E190E0C7
S11301C0909301018093000109C0813A9F4034F06B
S11301D080EA9FE090930101809300019F918F91A9
S11301E02F910F900FBE0F901F90189580E882BB3F
S11301F0809100019091010167DF12BA80910001A2
S11302009091010161CF089514BA8FEF81BB83B738
S1130210836083BF87B7816087BF12BE7894E6DFAF
S1090220FECFF894FFCFAD
S1050226E803E7
S9030000FC
