S01100004D49432D5765656B342E737265634D
S113000045C0000060C000005EC000005CC000008D
S11300105AC0000058C0000056C0000054C0000080
S113002052C0000050C000004EC000004CC0000090
S11300304AC0000048C0000046C0000044C00000A0
S113004042C0000040C000003EC000003CC00000B0
S11300503AC0000038C0000036C0000034C00000C0
S113006032C0000030C000002EC000002CC00000D0
S11300702AC0000028C0000026C0000024C00000E0
S113008022C0000020C000001EC0000011241FBEBA
S1130090CFEFD0E1DEBFCDBF11E0A0E0B1E0E2E3FD
S11300A0F2E000E00BBF02C007900D92A030B10750
S11300B0D9F721E0A0E0B1E001C01D92A030B20761
S11300C0E1F7B4D0B4C09CCF181619066CF420E044
S11300D030E0EFECF7E03197F1F700C000002F5F5C
S11300E03F4F28173907A9F708951BBC1ABC19BC40
S11300F018BC109279001092780089EA8FBD8BE0C9
S11301008EBD08958FEF87BBF0DF84E690E0DCDFDF
S11301101BBC1ABC109279001092780019BC18BC50
S1130120C0E0D0E0EE24E394F12CCE0199279BBDEE
S11301308ABD82E0E80EF11C84E690E0C5DFCE0DB6
S1130140DF1DCF3FD10589F384F3CC24C394D12C94
S1130150C1E0D0E0812C912C0F2EF8E7AF2EB12C0A
S1130160F02D77247A94612C082D192DC801992734
S113017099BD88BD229684E690E0A6DF0C0F1D1F72
S11301800F3F110599F394F3082D192DC8019927F0
S1130190F50191838083F2E0CF0ED11C84E690E0D8
S11301A093DF0C0D1D1D0F3F110581F37CF3072D0B
S11301B0162DC80199279BBD8ABD82E0E81AF10873
S11301C084E690E081DF0E191F099AF7072D162D9A
S11301D0C801992799BD88BD229784E690E074DF11
S11301E00C1B1D0BAAF7082D192DC80199279BBDBF
S11301F08ABDE2E0EE0EF11C84E690E065DF0E0DB0
S11302001F1D0F3F110589F384F3072D162DC80117
S11302109927F50191838083F2E0CF1AD10884E60F
S113022090E052DF0C191D0992F79ECF6BDFF89412
S1050230FFCFFA
S9030000FC
