S01100004D49432D5765656B342E737265634D
S113000045C0000053C0000051C000004FC00000B4
S11300104DC000004BC0000049C0000047C00000B4
S113002045C0000043C0000041C000003FC00000C4
S11300303DC000003BC0000039C0000037C00000D4
S113004035C0000033C0000031C000002FC00000E4
S11300502DC000002BC0000029C0000027C00000F4
S113006025C0000023C0000021C000001FC0000004
S11300701DC000001BC0000019C0000017C0000014
S113008015C0000013C0000011C0000011241FBEE1
S1130090CFEFD0E1DEBFCDBF21E0A0E0B1E001C0F1
S11300A01D92A030B207E1F7A5D0B6C0A9CF1816AB
S11300B019066CF420E030E0EFECF7E03197F1F74B
S11300C000C000002F5F3F4F28173907A9F7089594
S11300D01BBC1ABC19BC18BC109279001092780091
S11300E089EA8FBD8BE08EBD089581EE87B986E8DD
S11300F086B908958FEF87BBEBDF84E690E0D7DF06
S11301000F2EF8E7CF2ED12CF02D88248394912C38
S113011077247A94612C1BBC1ABCF60111821082DC
S113012019BC18BC00E010E0C82DD92DC8019927CE
S11301309BBD8ABD229684E690E0B9DF0C0F1D1F9B
S11301400F3F110599F394F3E12CF12C082D192D8F
S1130150C701992799BD88BD0E5F1F4F84E690E0C3
S1130160A6DFE00EF11EEFEFEE16F10489F384F33F
S1130170A12CB12CE82CF92CC5019927F601918307
S11301808083F2E0EF0EF11C84E690E090DFAE0C89
S1130190BF1C8FEFA816B10479F374F3A72CB62C07
S11301A0C50199279BBD8ABD229784E690E07FDF35
S11301B0AC1ABD0AAAF7C72DD62DCE01992799BD31
S11301C088BD0250110984E690E071DFC01BD10B99
S11301D0A2F7C72DD62DCE019927F60191838083EE
S11301E0F2E0EF1AF10884E690E061DFCE19DF094E
S11301F092F791CF8FEF87BB109261008ABB75DFB6
S113020067DF369A3699FECF85B190E09BBD8ABDF3
S10F021084E690E04CDF6EDFF894FFCF32
S9030000FC
