S01100004D49432D5765656B342E737265634D
S113000045C0000053C0000051C000004FC00000B4
S11300104DC000004BC0000049C0000047C00000B4
S113002045C0000043C0000041C000003FC00000C4
S11300303DC000003BC0000039C0000037C00000D4
S113004035C0000033C0000031C000002FC00000E4
S11300502DC000002BC0000029C0000027C00000F4
S113006025C0000023C0000021C000001FC0000004
S11300701DC000001BC0000019C0000017C0000014
S113008015C0000013C0000011C0000011241FBEE1
S1130090CFEFD0E1DEBFCDBF21E0A0E0B1E001C0F1
S11300A01D92A030B207E1F798D0A9C0A9CF1816C5
S11300B019066CF420E030E0EFECF7E03197F1F74B
S11300C000C000002F5F3F4F28173907A9F7089594
S11300D01BBC1ABC19BC18BC109279001092780091
S11300E089EA8FBD8BE08EBD089581EE87B986E8DD
S11300F086B908958FEF87BBEBDF84E690E0D7DF06
S113010008E710E0AA24A394B12CCC24CA94D12CDF
S11301101BBC1ABCF8011182108219BC18BCC0E0C7
S1130120D0E0EA2CFB2CCE0199279BBD8ABDF2E0DE
S1130130EF0EF11C8AE090E0BADFCE0DDF1DCF3F59
S1130140D10589F384F3C0E0D0E0CE01992799BDAD
S113015088BD8AE090E0ABDF2196C11581E0D80725
S1130160A1F733C0CE019927F801918380838AE0F7
S113017090E09DDF2196C115F1E0DF0799F728C0D3
S1130180CE0199279BBD8ABD82E0E81AF1088AE076
S113019090E08DDFCE19DF099AF7CC2DDD2DCE014D
S11301A0992799BD88BD8AE090E081DF2197B8F74F
S11301B0CC2DDD2DCE019927F801918380838AE02F
S11301C090E075DF2197B0F7A3CFC0E0D0E0CACFAD
S11301D08CEFF81ACC2DDD2DD3CF8FEF87BB109287
S11301E061008ABB82DF74DF369A3699FECF85B10F
S11301F090E09BBD8ABD84E690E059DF7BDFF894F4
S1050200FFCF2A
S9030000FC
