S01100004D49432D5765656B342E737265634D
S113000045C0000053C0000051C000004FC00000B4
S11300104DC000004BC0000049C0000047C00000B4
S113002045C0000043C0000041C000003FC00000C4
S11300303DC000003BC0000039C0000037C00000D4
S113004035C0000033C0000031C000002FC00000E4
S11300502DC000002BC0000029C0000027C00000F4
S113006025C0000023C0000021C000001FC0000004
S11300701DC000001BC0000019C0000017C0000014
S113008015C0000013C0000011C0000011241FBEE1
S1130090CFEFD0E1DEBFCDBF21E0A0E0B1E001C0F1
S11300A01D92A030B207E1F728D039C0A9CF1816A5
S11300B019066CF420E030E0EFECF7E03197F1F74B
S11300C000C000002F5F3F4F28173907A9F7089594
S11300D01BBC1ABC19BC18BC109279001092780091
S11300E089EA8FBD8BE08EBD089581EE87B986E8DD
S11300F086B908959899369A08958FEF87BB109220
S113010061008ABBF2DFE4DF3699FECF85B190E06F
S11301109BBD8ABD84E690E0CADFECDFF5CFF8949E
S1050120FFCF0B
S9030000FC
