S01100004D49432D5765656B342E737265634D
S113000045C0000053C0000051C000004FC00000B4
S11300104DC000004BC0000049C0000047C00000B4
S113002045C0000043C0000041C000003FC00000C4
S11300303DC000003BC0000039C0000037C00000D4
S113004035C0000033C0000031C000002FC00000E4
S11300502DC000002BC0000029C0000027C00000F4
S113006025C0000023C0000021C000001FC0000004
S11300701DC000001BC0000019C0000017C0000014
S113008015C0000013C0000011C0000011241FBEE1
S1130090CFEFD0E1DEBFCDBF21E0A0E0B1E001C0F1
S11300A01D92A030B207E1F786D097C0A9CF1816E9
S11300B019066CF420E030E0EFECF7E03197F1F74B
S11300C000C000002F5F3F4F28173907A9F7089594
S11300D01BBC1ABC19BC18BC109279001092780091
S11300E089EA8FBD8BE08EBD089581EE87B986E8DD
S11300F086B908958FEF87BBEBDF84E690E0D7DF06
S11301000F2EFAE4AF2EB12CF02D812C912CC8E7E0
S1130110D0E0382C292C482C592CF501918280826E
S11301209982888299BC88BC6401EE24E394F12C02
S1130130C6019927F501918380838AE090E0B7DFB7
S1130140032D122DC801992799BD88BD8AE090E03E
S1130150AEDF642C752CC3019927998388838AE0C8
S113016090E0A5DFFFEF6F1A7F0A611481E0780643
S113017091F70F5F1F4F0115E1E01E0719F7C70143
S11301808E5F9D4F7C01C80ED91EFFEFCF16D104A0
S113019079F274F20FEF10E0C8019927F501918309
S11301A08083F2E0EF1AF10884E690E080DF0E1914
S11301B01F0992F7B2CF8FEF87BB109261008ABB01
S11301C094DF86DF369A3699FECF85B190E09BBDE9
S11101D08ABD84E690E06BDF8DDFF894FFCFEC
S9030000FC
